:100000000000042001020000610200006302000001
:1000100065020000670200006902000000000000A5
:100020000000000000000000000000006B02000063
:100030006D020000000000006F020000710200006D
:100040007302000073020000152C000099150000D7
:1000500073020000730200007302000073020000CC
:1000600073020000730200007302000073020000BC
:1000700073020000730200007302000073020000AC
:10008000730200007302000073020000730200009C
:10009000730200007302000073020000730200008C
:1000A000730200007302000073020000730200007C
:1000B0007302000073020000000000000000000056
:1000C000730200007302000073020000730200005C
:1000D000730200007302000073020000730200004C
:1000E00073020000730200007302000000000000B1
:1000F0000000000073020000000000007302000016
:1001000000000000000000000000000000000000EF
:1001100000000000000000000000000000000000DF
:1001200000000000000000000000000000000000CF
:1001300000000000000000000000000000000000BF
:1001400000000000000000000000000000000000AF
:10015000000000000000000000000000000000009F
:10016000000000000000000000000000000000008F
:10017000000000000000000000000000000000007F
:10018000000000000000000000000000000000006F
:10019000000000000000000000000000000000005F
:1001A000000000000000000000000000000000004F
:1001B000000000000000000000000000000000003F
:1001C000000000000000000000000000000000002F
:1001D000000000000000000000000000000000001F
:1001E000000000000000000000000000000000000F
:1001F00000000000000000000000000000000000FF
:100200001048804710484FF00701884385460F4843
:1002100080470F48016841F470010160BFF34F8FC0
:10022000BFF36F8F00F028B80A480B490B4A884289
:1002300007D0521A05D0037801300B700131013A12
:10024000F9D170477502000000000420AD060000DF
:1002500088ED00E020560000000000200000002093
:10026000FEE7FEE7FEE7FEE7FEE7FEE7FEE7FEE766
:10027000FEE7FEE7704700BF354936480A1A02D04C
:10028000072291438D46344934480A1A06D0072282
:10029000914381F30988022282F31488304831495E
:1002A000314A00F044F831483149324A00F03FF811
:1002B00031483249324A00F03AF832483249334A3A
:1002C00000F035F832483349334A00F030F833480B
:1002D0003349344A00F02BF833483449344A00F0AB
:1002E00026F834483449002200F02CF833483449C9
:1002F000002200F027F833483349091A082902DBA5
:10030000002202604160314A90471F481F498842DD
:1003100005D00268043003B4904703BCF7E700201F
:100320008646EC4600200021294A9047FEE7884295
:1003300007D0521A05D0037801300B700131013A11
:10034000F9D17047884202D002700130FAE7704755
:100350000000042000E0032000000420000004202E
:100360004C6000000000002070000020D40300005A
:10037000D4030000D45500004C60000000000020B1
:1003800000000020205600002056000020560000EB
:100390002056000020560000205600002056000085
:1003A000205600004A600000BC6000007000002081
:1003B0007000002070000020220700202407002089
:1003C0002407002024070020242700202902000001
:0403D00051050000D3
:1003D40000B585B00190019B002B0AD0074B43F078
:1003E40001030393019B9B010293039B029898478B
:1003F40000E000BF05B05DF804FB00BFC05600007C
:1004040000B583B00190019B0433184600F076FDDB
:1004140000BF03B05DF804FB00B583B00190019BFD
:10042400002B0AD04FF47A70FFF7D2FF019B013BF7
:100434000193019B002BF5D100E000BF03B05DF8F0
:1004440004FB000010B582B003468DF80730144A4F
:10045400144BD31ADB081B0443F0030404F0AAFF73
:10046400F0EE407AFCEEE77A17EE902A0E49204629
:1004740004F0A6FA0A4A0B4BD31ADB081B0443F018
:10048400030404F0B5FFF0EE407AFCEEE77A17EED1
:10049400902A0649204604F093FA00BF02B010BD2A
:1004A40008560000E8550000305600004856000089
:1004B40000B583B001900091019B1B78002B0ED1F5
:1004C400019B1B79012B06D104F058FF0346DBB2D4
:1004D4001846FFF7B7FF044B01221A7000E000BF73
:1004E40000BF03B05DF804FB7000002000B587B0C6
:1004F4006B4600221A605A609A60DA601B230093EC
:100504001A2301934FF0CC73029302238DF80C301D
:10051400694600230A4A0B4802F004FD0590059B36
:100524000493049B002B04D0074A7721049803F01A
:10053400A5FC0448FFF764FF00BF07B05DF804FBA7
:10054400B5040000205600005C56000000B583B0DE
:100554000021002003F062FF0190019B002B04D0D6
:100564003B4A8121019803F089FC03F0F5FE394AE6
:10057400394BD31ADB081B0443F0030337491846ED
:1005840004F010FA00BF04F069FA0346002BFAD114
:10059400FFF7ACFF324804F09FFE324B00221A7082
:1005A40004F0E4FE00BF2F4B1B78DBB283F00103A1
:1005B400DBB2002BF7D12B4B00221A7047F6A24076
:1005C40004F0C6FE00BF274B1B78DBB283F00103A7
:1005D400DBB2002BF7D1234B00221A7004F020FF6A
:1005E4004FF4FA70FFF718FF20BF00BF1D4B1B78B4
:1005F400DBB283F00103DBB2002BF5D1194B0022EF
:100604001A7004F0B3FE00BF164B1B78DBB283F004
:100614000103DBB2002BF7D1124B00221A7047F60C
:10062400A24004F095FE00BF0E4B1B78DBB283F0B2
:100634000103DBB2002BF7D10A4B00221A7004F03D
:10064400EFFE00BF04F00AFA0346002BFAD1C7E715
:100654005C56000008560000E8550000985600005B
:100664002056000070000020BFF34F8F00BF074BDF
:10067400DB6803F4E0620549054B1343CB60BFF329
:100684004F8F00BF00BF00BFFCE700BF00ED00E0DC
:100694000400FA05024B034A1A6000BF704700BF0A
:1006A400000000200090D00308B500F027F90346AD
:1006B400002B0ED04FF080430022C3F80C214FF0E2
:1006C40080430022C3F810214FF080430022C3F876
:1006D400382500F037F90346002B76D04FF08053CD
:1006E4007D4AD3F80434C2F820354FF080537A4A57
:1006F400D3F80834C2F824354FF08053764AD3F83F
:100704000C34C2F828354FF08053734AD3F81034B0
:10071400C2F82C354FF080536F4AD3F81434C2F822
:1007240030354FF080536C4AD3F81834C2F834355E
:100734004FF08053684AD3F81C34C2F840354FF068
:100744008053654AD3F82034C2F844354FF08053BF
:10075400614AD3F82434C2F848354FF080535E4AD6
:10076400D3F82834C2F84C354FF080535A4AD3F8A2
:100774002C34C2F850354FF08053574AD3F83034F4
:10078400C2F854354FF08053534AD3F83434C2F886
:1007940060354FF08053504AD3F83834C2F864358A
:1007A4004FF080534C4AD3F83C34C2F868354FF0CC
:1007B4008053494AD3F84034C2F86C354FF0805323
:1007C400454AD3F84434C2F8703500F0DFF80346E4
:1007D400002B02D0414B424A1A6000F0E9F803466C
:1007E400002B03D03F4BFB22C3F8182500F0F2F88E
:1007F4000346002B0AD03C4B1B6823F00F023B4BF3
:100804001B6803F00F03384913430B6000F0F4F83E
:100814000346002B03D0364B4FF400721A6000F0ED
:10082400FDF80346002B0DD04FF08043D3F800347D
:1008340003F00103002B05D04FF080436FF0010259
:10084400C3F800242B4BD3F888302A4A43F47003AE
:10085400C2F88830BFF34F8F00BFBFF36F8F00BF64
:100864004FF01023D3F80032002B05DB4FF0102398
:10087400D3F80432002B2BDA1F4B0122C3F80425D2
:1008840000BF1D4BD3F80034002BFAD04FF01023D7
:100894001222C3F8002200BF174BD3F80034002BF8
:1008A400FAD04FF010231222C3F8042200BF124BD7
:1008B400D3F80034002BFAD00F4B0022C3F80425E0
:1008C40000BF0D4BD3F80034002BFAD0FFF7CCFE59
:1008D400FFF7E0FE00BF08BD00C000408C5600409A
:1008E4004881030000F00040E40E0040580200106C
:1008F4004096024000ED00E000E001400F4B1B6811
:10090400082B17D10E4B1B68002B01D1012312E0D9
:100914000B4B1B68012B01D101230CE0084B1B6816
:10092400022B01D1012306E0054B1B68032B01D1E7
:10093400012300E001231846704700BF3001001076
:10094400340100100F4B1B68082B17D10E4B1B688A
:10095400002B01D1012312E00B4B1B68012B01D1A9
:1009640001230CE0084B1B68022B01D1012306E094
:10097400054B1B68032B01D1012300E0012318461A
:10098400704700BF3001001034010010064B1B6893
:10099400082B05D1054B1B68002B01D1012300E076
:1009A40000231846704700BF3001001034010010C6
:1009B400064B1B68082B05D1054B1B68002B01D186
:1009C400012300E000231846704700BF30010010E7
:1009D40034010010064B1B68082B05D1054B1B681E
:1009E400002B01D1012300E000231846704700BF0B
:1009F4003001001034010010064B1B68082B05D190
:100A0400054B1B68002B01D1012300E0002318468D
:100A1400704700BF30010010340100100F4B1B68F9
:100A2400082B17D10E4B1B68002B01D1012312E0B8
:100A34000B4B1B68012B01D101230CE0084B1B68F5
:100A4400022B01D1012306E0054B1B68032B01D1C6
:100A5400012300E001231846704700BF3001001055
:100A64003401001082B003468DF807309DF807303A
:100A740003F01F0205499DF907305B09012000FAC4
:100A840002F241F8232000BF02B0704700E100E009
:100A940082B0034600918DF807309DF90730002B92
:100AA4000CDA009BDAB20C499DF8073003F00F030F
:100AB400043B5201D2B20B441A7609E0009BDAB22D
:100AC40006499DF907305201D2B20B4483F8002342
:100AD40000BF02B0704700BF00ED00E000E100E09D
:100AE40082B00190019B03F06043B3F1005F0CBF3F
:100AF40001230023DBB2184602B0704782B0019094
:100B0400019B1B0B5BB2184602B0704700B583B063
:100B140003460A468DF8073013468DF806309DF8D3
:100B240006209DF9073011461846FFF7B1FF00BFB4
:100B340003B05DF804FB00B583B003468DF80730BD
:100B44009DF907301846FFF78DFF00BF03B05DF82D
:100B540004FB82B001900B468DF803309DF80330FE
:100B6400019A134401221A6000BF02B0704784B096
:100B740001900B46ADF80230BDF80230019A1344DF
:100B840000221A60BDF80230019A13441B680393D3
:100B9400039B00BF04B0704782B001900B46ADF8D0
:100BA4000230BDF80230019A13441B68002B14BFB5
:100BB40001230023DBB2184602B0704782B00190D3
:100BC4000091019B009AC3F8042300BF02B0704750
:100BD40082B001900091019B009AC3F8082300BFE2
:100BE40002B0704782B00190019B0622C3F8002531
:100BF40000BF02B0704784B0039002910192039B3E
:100C0400029AC3F80825039B019AC3F80C2500BF78
:100C140004B0704782B001900091019B009AC3F820
:100C2400242500BF02B0704784B00190019BD3F823
:100C3400C4340393019B039AC3F8C424039B18464A
:100C440004B0704782B001900B468DF803309DF8D4
:100C54000320019BC3F8882500BF02B0704784B00D
:100C6400039002910192029A039BC3F84425039BCB
:100C7400019AC3F8482500BF04B0704784B00390BC
:100C840002910192029A039BC3F83425039B019AB3
:100C9400C3F8382500BF04B0704782B001900091BA
:100CA400019B009AC3F8002200BF02B0704782B0D3
:100CB4000190019BD3F84C35184602B0704782B0BE
:100CC4000190019BD3F83C35184602B0704782B0BE
:100CD4000190019B0122C3F8502500BF02B0704768
:100CE40082B00190019B0022C3F8502500BF02B0DE
:100CF400704782B00190019B0122C3F8402500BFD8
:100D040002B0704782B00190019B0022C3F84025D5
:100D140000BF02B07047000082B00190019B1B68C5
:100D24001F2B02D84FF0A04306E0019B1B6803F081
:100D34001F02019B1A60024B184602B0704700BFA5
:100D44000003005000B585B00190084611461A46CC
:100D540003468DF803300B468DF8023013468DF8A8
:100D6400013001AB1846FFF7D7FF03909DF803202D
:100D74009DF802305B001A439DF801309B001A4332
:100D84009DF818301B0242EA03019DF81C301B0435
:100D9400019A1943039B02F5E07243F8221000BF45
:100DA40005B05DF804FB84B0019003230393019B19
:100DB40003F00203002B02D048F201230393019BAA
:100DC40003F00403002B02D048F202230393039B95
:100DD400184604B07047000000B58BB0059004912C
:100DE40003920293059B1B791A46342303FB02F3F7
:100DF400404A13440793079B93F82D30002B03D0EC
:100E040008230993099B70E0059B1A68059B1B79CD
:100E14001946394B53F821301946104601F010FF9A
:100E24000346002B03D011230993099B5DE0079B24
:100E3400039A1A60079B029A5A60079B00229A60E1
:100E4400079B002283F83020079B002283F82F2081
:100E5400049B5A7B079B83F83220049B1868002369
:100E6400019306230093032300220021FFF76AFF66
:100E7400049B586800230193062300930323002254
:100E84000021FFF75FFF059B1B680893049B19680B
:100E9400049B5B681A460898FFF7ADFE049B9B68A9
:100EA40019460898FFF7B6FE079B1B68002B15D060
:100EB400059B1B681846FFF721FE03461A46049B50
:100EC4001B7B19461046FFF721FE059B1B6818463D
:100ED400FFF714FE03461846FFF72DFE079B012279
:100EE40083F82D2000230993099B18460BB05DF865
:100EF40004FB00BF74000020D056000000B585B08C
:100F04000190019B1B791A46342303FB02F3084A20
:100F140013440393019B1B681846FFF763FE039B6E
:100F2400022283F82D2000BF05B05DF804FB00BF4A
:100F34007400002000B583B001900091009B03F081
:100F44000103002B03D00198FFF7C1FE02E00198D2
:100F5400FFF7C6FE009B03F00203002B03D00198A9
:100F6400FFF7C7FE02E00198FFF7CCFE00BF03B015
:100F74005DF804FB30B589B00390029101920093AF
:100F84000023079308238DF81B304FF48273ADF8C8
:100F94001830019BDB681846FFF7A2FD034683F077
:100FA4000103DBB2002B03D010230793079B82E1DC
:100FB400A4490298FFF70CFE039B93F82F30DBB291
:100FC400002B09D0039B9B6819460298FFF7F6FD96
:100FD40011230793079B6EE1009B03F00403002B8E
:100FE40006D1009B03F01003002B01D1012300E084
:100FF400002303F00103DAB2039B83F82F20039B41
:10100400019A03F10C0415460FCD0FC42B6823601D
:10101400009B1B0903F00103002B14BF01230023D1
:10102400DAB2039B83F83020019B5B78194602985F
:10103400FFF708FE4FF482710298FFF798FD4FF412
:1010440092710298FFF793FD00990298FFF772FFDF
:10105400019B1B78032B00F2CE8001A252F823F0EF
:101064006F110000C9110000151100007510000077
:10107400019B1B691846FFF733FD034683F0010308
:10108400DBB2002B03D010230793079B13E14FF42B
:1010940080710298FFF701FE019BD968019B5B6890
:1010A4001A460298FFF7DBFD4FF4A8710298FFF788
:1010B4005EFD4FF4B0710298FFF759FD4FF4A4712F
:1010C4000298FFF754FD20210298FFF742FD082102
:1010D4000298FFF73EFD00BF4FF4A8710298FFF796
:1010E4005BFD034683F00103DBB2002BF4D14FF424
:1010F400A8710298FFF73BFD019B1969019B9B684E
:101104001A460298FFF7ABFD039B4F4A9A6075E0BD
:10111400019BD968019B5B681A460298FFF79FFD03
:10112400019B1B691846FFF7DBFC034683F00103B0
:10113400DBB2002B03D010230793079BBBE0019B7A
:101144001969019B9B681A460298FFF797FD4FF4B3
:1011540084510298FFF7A1FD039B40F202229A609A
:1011640020210298FFF7F5FC48E0019BD968019B18
:101174005B681A460298FFF772FD009B03F0200398
:10118400002B11D04FF480710298FFF786FD039B6A
:101194002D4A9A604FF4A4710298FFF7E8FC4FF4CB
:1011A400A473ADF8183008E04FF400710298FFF70B
:1011B40074FD039B40F202229A6020210298FFF7FB
:1011C400C8FC1BE0019BD968019B5B681A46029826
:1011D400FFF754FD4FF480510298FFF75EFD039B27
:1011E40040F202229A6000238DF81B3020210298DD
:1011F400FFF7AFFC02E00723079300BF009B03F057
:101204000803002B09D1019B1B78032B05D09DF803
:101214001B3019460298FFF79CFC039B1B68002BAC
:101224002DD0009B03F00403002B03D0039B4FF449
:1012340000729A60039B9B6819460298FFF7BEFCF4
:1012440038E000BF02029C01000204004FF49271D6
:101254000298FFF7A1FC0346002B10D04FF49271C3
:101264000298FFF784FC20210298FFF772FC1421F6
:101274000298FFF76EFC4FF48273ADF81830BDF896
:10128400183019460298FFF787FC034683F00103E0
:10129400DBB2002BDAD10298FFF7C6FC0590039B62
:1012A400002283F82F20059B002B03D00598FFF71D
:1012B4007AFD0790079B184609B030BD00B587B08A
:1012C40003900291019200230593039B1B791A4614
:1012D400342303FB02F3084A13440493039B196861
:1012E400019B029A0498FFF745FE0590059B18465A
:1012F40007B05DF804FB00BF7400002000B58BB09C
:101304000390019200930B468DF80B3005AB00223D
:101314001A605A609A60DA601A619DF80B308DF891
:101324001530009B0693019B08939DF83030002BE9
:1013340001D0202200E0002205AB19460398FFF7F4
:10134400BDFF034618460BB05DF804FB00B58BB037
:101354000390019200930B468DF80B3005AB0022ED
:101364001A605A609A60DA601A6101238DF81430A9
:101374009DF80B308DF81530009B0693019B089364
:1013840005AB002219460398FFF798FF0346184659
:101394000BB05DF804FB000030B58BB001900091F8
:1013A4004FF492710198FFF7F7FB0346002B27D007
:1013B4004FF492710198FFF7DAFB4FF482710198B0
:1013C400FFF7EAFB034683F00103DBB2002B17D0DF
:1013D400009B9B6819460198FFF7FAFB009B0222C9
:1013E4009A60009B9B6819460198FFF7E7FB202150
:1013F4000198FFF7AEFB14210198FFF7AAFBC5E0A3
:101404004FF482710198FFF7C7FB0346002B50D0BD
:101414004FF482710198FFF7AAFB009B04AC03F11F
:101424000C050FCD0FC42B682360009B93F82E305E
:10143400002B1BD0009B1B7B012B04D10198FFF7D1
:101444003EFC034603E00198FFF731FC0346059395
:10145400009B1B7B022B04D10198FFF730FC034651
:1014640003E00198FFF723FC034606934FF4B071A1
:101474000198FFF77CFB4FF4AE710198FFF777FBFF
:10148400009B93F8303083F00103DBB2002B04D1CE
:10149400009B93F82E30002B4CD000210198FFF7CD
:1014A400FCFB009B00229A6039490198FFF790FBEE
:1014B40040E04FF4A4710198FFF759FB009B1B7B9C
:1014C400002B1BD1009B04AC03F10C050FCD0FC402
:1014D4002B682360009B93F8303083F00103DBB268
:1014E400002B27D000210198FFF7D7FB009B002297
:1014F4009A6027490198FFF76BFB1BE04FF40071DA
:101504000198FFF7CAFB009B40F202229A6020492F
:101514000198FFF75DFB009B9B6819460198FFF754
:101524004DFB08210198FFF714FB20210198FFF7D8
:1015340010FB2BE00198FFF777FB0990099B03F060
:101544000203002B03D001238DF80C300BE0099B20
:1015540003F00403002B03D002238DF80C3002E0C7
:1015640000238DF80C30009B93F8303083F0010396
:10157400DBB2002B03D0009B002283F82F20009BBA
:101584001B68009A516803AA104698470BB030BDF7
:1015940002029C0108B503490348FFF7FDFE00BFA2
:1015A40008BD00BF740000200030004082B0034634
:1015B4008DF807309DF8073003F01F0205499DF9A7
:1015C40007305B09012000FA02F241F8232000BF32
:1015D40002B0704700E100E082B003468DF80730A6
:1015E4009DF8073003F01F0206499DF907305B0997
:1015F400012000FA02F2203341F8232000BF02B098
:10160400704700BF00E100E082B0034600918DF80E
:1016140007309DF90730002B0CDA009BDAB20C4935
:101624009DF8073003F00F03043B5201D2B20B4480
:101634001A7609E0009BDAB206499DF90730520197
:10164400D2B20B4483F8002300BF02B0704700BF3E
:1016540000ED00E000E100E082B00190019B1B0B73
:101664005BB2184602B0704700B583B003460A4621
:101674008DF8073013468DF806309DF806209DF945
:10168400073011461846FFF7BFFF00BF03B05DF8EF
:1016940004FB00B583B003468DF807309DF907308D
:1016A4001846FFF783FF00BF03B05DF804FB00B5E5
:1016B40083B003468DF807309DF907301846FFF7CD
:1016C4008BFF00BF03B05DF804FB84B001900B46B0
:1016D400ADF80230BDF80230019A134400221A60BA
:1016E400BDF80230019A13441B680393039B00BFA7
:1016F40004B0704782B001900B46ADF80230BDF8DB
:101704000230019A13441B68002B14BF01230023E9
:10171400DBB2184602B0704782B001900091019B81
:10172400009AC3F8042300BF02B0704782B001904E
:101734000091019BD3F80423009B1340002B14BF9A
:1017440001230023DBB2184602B0704782B0019037
:101754000091019B009AC3F8082300BF02B07047B0
:1017640084B00190019BD3F880340393019B039AC6
:10177400C3F88024039B184604B0704782B00190DC
:10178400019B0422C3F8002500BF02B0704782B059
:101794000190019B0022C3F8002500BF02B07047EE
:1017A40084B0039002910192039B019AC3F814251B
:1017B400039B029AC3F80C2500BF04B0704700B520
:1017C40083B001904FF0FF324FF0FF310198FFF7E3
:1017D400E7FF00BF03B05DF804FB82B00190019BFA
:1017E400D3F80C35184602B0704782B00190019BC3
:1017F400D3F81435184602B0704782B00190019BAB
:10180400D3F80835184602B0704782B00190019BA6
:10181400D3F81035184602B0704784B00390029193
:101824000192039B029AC3F80825039B019AC3F80B
:10183400102500BF04B0704700B583B001904FF08D
:10184400FF324FF0FF310198FFF7E7FF00BF03B00D
:101854005DF804FB82B00190019BD3F81835DBB22C
:10186400184602B0704782B001900B468DF80330E1
:101874009DF80320019BC3F81C2500BF02B07047EC
:1018840082B001900B468DF803309DF80330019A25
:10189400134401221A6000BF02B0704782B0019065
:1018A4000B468DF8033013468DF802309DF8032063
:1018B4009DF802301343DBB21A46019BC3F86C2532
:1018C40000BF02B0704782B001900091019B009A62
:1018D400C3F8242500BF02B07047000082B0019015
:1018E400019B1B681F2B02D84FF0A04306E0019B0D
:1018F4001B6803F01F02019B1A60024B184602B0DA
:10190400704700BF0003005000B585B00190084641
:1019140011461A4603468DF803300B468DF8023003
:1019240013468DF8013001AB1846FFF7D7FF03903B
:101934009DF803209DF802305B001A439DF80130A6
:101944009B001A439DF818301B0242EA03019DF8DC
:101954001C301B04019A1943039B02F5E07243F8FF
:10196400221000BF05B05DF804FB00B585B00390FC
:1019740000230193002300930023012201210398F3
:10198400FFF7C2FF00BF05B05DF804FB00B585B0EA
:1019940003900B468DF80B309DF80B30002201921A
:1019A40000220092002200210398FFF7ADFF00BF40
:1019B40005B05DF804FB00B585B0039000230193E6
:1019C400002300930023012200210398FFF79CFFCA
:1019D40000BF05B05DF804FB00B585B0019001AB14
:1019E4001846FFF77BFF0390019B012202FA03F3E1
:1019F4001946039800F004F800BF05B05DF804FB35
:101A040082B001900091019B009AC3F8082500BFA1
:101A140002B0704700B583B001900091009B1B6831
:101A2400B3F1FF3F09D0009B1B681846FFF7D4FFB2
:101A3400009B1B681846FFF798FF009B5B68B3F197
:101A4400FF3F05D0009B5B6800211846FFF79EFF0F
:101A5400019B1A68009B9B6919461046FFF733FFE8
:101A6400019B1868009B597D009B1B7D1A46FFF75C
:101A740015FF019B1868009B1968009B5B681A4658
:101A8400FFF78EFE009B1B7D012B22D1009B9B68E0
:101A9400B3F1FF3F05D0009B9B6800211846FFF778
:101AA40075FF009BDB68B3F1FF3F09D0009BDB6847
:101AB4001846FFF791FF009BDB681846FFF755FFB8
:101AC400019B1868009BD968009B9B681A46FFF726
:101AD400A4FE00BF03B05DF804FB000000B583B0B2
:101AE40001900B468DF80330019B1B684FF48E71F7
:101AF4001846FFF7EAFD019B1B684FF4A2711846D4
:101B0400FFF7E3FD019B1B680E491846FFF704FE2F
:101B1400019B1B681846FFF79FFD03461A469DF874
:101B2400033019461046FFF79FFD019B1B681846BA
:101B3400FFF792FD03461846FFF7ABFD00BF03B065
:101B44005DF804FB8000020000B583B00190019BA6
:101B54001B6808491846FFF7F9FD019B1B681846E6
:101B6400FFF77AFD03461846FFF7A1FD00BF03B057
:101B74005DF804FB8402020000B587B00190019B6C
:101B84001B681846FFF729FE0590019B1B68184641
:101B9400FFF72BFE0490019B1B681846FFF72DFEF0
:101BA4000390019B1B681846FFF72FFE0290019BD0
:101BB4001B681846FFF703FE019B1B681846FFF7D6
:101BC4003BFE059BB3F1FF3F02D00598FFF7F3FE00
:101BD400049BB3F1FF3F02D00498FFF7ECFE029B95
:101BE400B3F1FF3F02D00298FFF7E5FE039BB3F188
:101BF400FF3F02D00398FFF7DEFE00BF07B05DF899
:101C040004FB000000B587B0039002910192039B8E
:101C14001B791A462C2303FB02F3284A134404932A
:101C240000230593049B93F82A30002B03D0082348
:101C34000593059B3EE0039B1A68039B1B79194699
:101C44001F4B53F821301946104600F0F9FF0346A4
:101C5400002B03D011230593059B2BE002990398D5
:101C6400FFF7D8FE049B019A5A60029B1A69049BF1
:101C74001A60049B5B68002B05D0029B1B7F1946EE
:101C84000398FFF72BFF039B1B681846FFF776FDAD
:101C9400049B00229A61049B0022DA61049B0022C7
:101CA40083F82920049B00225A61049B012283F8B3
:101CB4002A20059B184607B05DF804FBA800002005
:101CC400DC56000000B585B00190019B1B791A46D3
:101CD4002C2303FB02F3114A13440393019B1B6857
:101CE4001846FFF754FD039B5B68002B02D0019854
:101CF400FFF72AFF0198FFF73FFF019B1B68184677
:101D040000F0CFFF039B002283F82A20039B0022CC
:101D14005A6000BF05B05DF804FB00BFA8000020B6
:101D240000B585B0019000914FF48E710198FFF7D2
:101D3400CCFC009B9A68009B1B6A13441B788DF8AB
:101D44000F30009B1B6A5A1C009B1A629DF80F30CF
:101D540019460198FFF787FD00BF05B05DF804FB45
:101D640000B583B00190009116E0009B93F82830F1
:101D7400DBB2002B01D0002315E04FF48E710198E3
:101D8400FFF7B8FC034683F00103DBB2002BECD170
:101D940000990198FFF7C4FF009B1A6A009B5B69D6
:101DA4009A42EAD30123184603B05DF804FB00000D
:101DB40000B587B0039002910192039B1B791A46E8
:101DC4002C2303FB02F32F4A13440493039800F0DB
:101DD4005BF80346002B03D011230593059B4CE0CD
:101DE400049B019A5A61049B029A9A60049B002204
:101DF4001A62049B002283F8282000230593039B86
:101E04001B684FF48E711846FFF75FFC039B1B6839
:101E140008211846FFF734FD039B1B6804991846F4
:101E2400FFF77EFF049B5B68002B25D1039B1B6897
:101E340004991846FFF794FF034683F00103DBB2CD
:101E4400002B02D00F23059313E000BF039B1B68F4
:101E54004FF48E711846FFF74DFC034683F00103DF
:101E6400DBB2002BF2D1039B1B680C211846FFF751
:101E740007FD049B00225A61059B184607B05DF8D4
:101E840004FB00BFA800002082B00190019B1B79D5
:101E94001946074A2C2303FB01F3134414331B682C
:101EA400002B14BF01230023DBB2184602B0704795
:101EB400A800002010B582B001900091009B9B699E
:101EC400002B08D14FF484710198FFF7FEFB0198B1
:101ED400FFF7C0FC13E04FF484710198FFF7F5FBA2
:101EE400009BDA68009B5B6AD4180198FFF7B2FC88
:101EF40003462370009B5B6A5A1C009B5A6202B023
:101F040010BD00B589B003900291019201238DF8B0
:101F14001030029B0693019B0593039B5B68039A15
:101F2400116804AA1046984700BF09B05DF804FB85
:101F340000B587B00190009100238DF80830009B14
:101F44000493019B9B680393019B00225A61019BAC
:101F54005B68019A116802AA1046984700BF07B04F
:101F64005DF804FB00B589B0019000914FF4007155
:101F74000198FFF7DBFB0346002B39D04FF4927135
:101F84000198FFF7B7FB0346002B31D04FF4927151
:101F94000198FFF79AFB4FF401710198FFF7D6FB04
:101FA400009B93F8293083F00103DBB2002B03D0AC
:101FB40004210198FFF764FC02238DF8083001988E
:101FC400FFF7CEFB03460593009B9B690493009B9C
:101FD400DB680393009B00229A61009B0022DA6174
:101FE400009B5B68009A116802AA1046984752E069
:101FF40004210198FFF79AFB0346002B4BD04FF4C2
:1020040084710198FFF776FB0346002B43D00099B7
:102014000198FFF74FFF009B9A69009B5B6A9A4205
:1020240039D1009BDB69002B19D0009BDB68079337
:10203400009B5B6A0693009BDA69009B9A61009B94
:102044001A69009BDA60009B0022DA61009B00227F
:102054005A62079A06990098FFF753FF1BE0009B0A
:1020640093F8293083F00103DBB2002B03D0042161
:102074000198FFF705FC4FF401710198FFF766FB27
:10208400009B00229A61009B596A009BDB681A46F8
:102094000098FFF736FF4FF48E710198FFF72AFB83
:1020A4000346002B22D0009B1A6A009B5B699A426C
:1020B4000DD2009B93F82830DBB283F00103DBB22E
:1020C400002B04D000990198FFF72AFE0EE04FF48C
:1020D4008E710198FFF7F9FA009B5B69002B05D01C
:1020E400009B5B6919460098FFF722FF4FF4A27129
:1020F4000198FFF7FFFA0346002B1CD04FF4A2719E
:102104000198FFF7E2FA009B93F82930002B03D0E3
:1021140000210198FFF7B4FB009B9B69002B0AD0B8
:10212400009B00229A61009B596A009BDB681A4657
:102134000098FFF7E6FE00BF09B05DF804FB00005D
:1021440008B503490348FFF70DFF00BF08BD00BFF2
:10215400A80000200020004082B003468DF807301C
:102164009DF8073003F01F0205499DF907305B090C
:10217400012000FA02F241F8232000BF02B07047A8
:1021840000E100E082B003468DF807309DF8073087
:1021940003F01F0206499DF907305B09012000FA8C
:1021A40002F2203341F8232000BF02B0704700BF81
:1021B40000E100E082B0034600918DF807309DF9FC
:1021C4000730002B0CDA009BDAB20C499DF807307B
:1021D40003F00F03043B5201D2B20B441A7609E018
:1021E400009BDAB206499DF907305201D2B20B4482
:1021F40083F8002300BF02B0704700BF00ED00E089
:1022040000E100E082B00190019B03F06043B3F170
:10221400005F0CBF01230023DBB2184602B07047F5
:1022240082B00190019B1B0B5BB2184602B0704751
:1022340000B583B003460A468DF8073013468DF87F
:1022440006309DF806209DF9073011461846FFF721
:10225400B1FF00BF03B05DF804FB00B583B00346D3
:102264008DF807309DF907301846FFF775FF00BF5A
:1022740003B05DF804FB00B583B003468DF8073066
:102284009DF907301846FFF77DFF00BF03B05DF8E6
:1022940004FB84B001900B46ADF80230BDF8023067
:1022A400019A134400221A60BDF80230019A1344C3
:1022B4001B680393039B00BF04B0704782B0019076
:1022C4000B46ADF80230BDF80230019A13441B6886
:1022D400002B14BF01230023DBB2184602B0704761
:1022E40082B001900091019BD3F80022009BDB4354
:1022F4001A40019BC3F8002200BF02B0704782B0AD
:1023040001900091019B009AC3F8042300BF02B01E
:10231400704782B001900091019B009AC3F8082392
:1023240000BF02B0704784B00190019BD3F88034A1
:102334000393019B039AC3F88024039B184604B0BB
:10234400704782B00190019B0822C3F8002500BFAA
:1023540002B0704782B00190019B0022C3F80025AF
:1023640000BF02B0704784B0039002910192039BB6
:10237400029AC3F80C25039B019AC3F8142500BFE5
:1023840004B0704700B583B001904FF0FF324FF0B6
:10239400FF310198FFF7E7FF00BF03B05DF804FBCE
:1023A40082B00190019BD3F80C35184602B07047F7
:1023B40082B00190019BD3F81435184602B07047DF
:1023C40082B00190019BD3F80835184602B07047DB
:1023D40082B00190019BD3F81035184602B07047C3
:1023E40084B0039002910192039B029AC3F80825DA
:1023F400039B019AC3F8102500BF04B0704700B5D1
:1024040083B001904FF0FF324FF0FF310198FFF796
:10241400E7FF00BF03B05DF804FB82B001900B46F8
:102424008DF803309DF80330019A134401221A6099
:1024340000BF02B0704782B001900B468DF80330A4
:1024440013468DF802309DF803209DF802301343A3
:10245400DBB21A46019BC3F86C2500BF02B070477B
:1024640082B001900091019B009AC3F8242500BF1B
:1024740002B0704784B0039002910192029A039BC8
:10248400C3F84425039B019AC3F8482500BF04B050
:10249400704782B00190019BD3F84C35184602B0C6
:1024A400704782B00190019BD3F83C35184602B0C6
:1024B4007047000082B00190019B1B681F2B02D85B
:1024C4004FF0A04306E0019B1B6803F01F02019B31
:1024D4001A60024B184602B0704700BF0003005058
:1024E40000B585B00190084611461A4603468DF89A
:1024F40003300B468DF8023013468DF8013001ABE2
:102504001846FFF7D7FF03909DF803209DF802308B
:102514005B001A439DF801309B001A439DF8183064
:102524001B0242EA03019DF81C301B04019A194363
:10253400039B02F5E07243F8221000BF05B05DF87A
:1025440004FB00B585B0039000230193002300939E
:102554000023012201210398FFF7C2FF00BF05B049
:102564005DF804FB00B585B003900B468DF80B3085
:102574009DF80B30002201920022009200220021DB
:102584000398FFF7ADFF00BF05B05DF804FB00B58D
:1025940085B00390002301930023009300230122BC
:1025A40000210398FFF79CFF00BF05B05DF804FB12
:1025B40000B585B0019001AB1846FFF77BFF03908F
:1025C400019B012202FA03F31946039800F004F870
:1025D40000BF05B05DF804FB82B001900091019B3F
:1025E400009AC3F8082500BF02B0704700B583B055
:1025F40001900091009B1B68B3F1FF3F09D0009B41
:102604001B681846FFF7D4FF009B1B681846FFF7AA
:1026140098FF009B5B68B3F1FF3F05D0009B5B68AC
:1026240000211846FFF79EFF019B1A68009B9B69D7
:1026340019461046FFF714FF019B1868009B597D4B
:10264400009B1B7D1A46FFF7F6FE019B1868009B52
:102654001968009B5B681A46FFF785FE009B1B7D8B
:10266400012B22D1009B9B68B3F1FF3F05D0009B57
:102674009B6800211846FFF775FF009BDB68B3F1E8
:10268400FF3F09D0009BDB681846FFF791FF009BD2
:10269400DB681846FFF755FF019B1868009BD96853
:1026A400009B9B681A46FFF79BFE00BF03B05DF8D2
:1026B40004FB000000B583B001900B468DF8033095
:1026C400019B1B684FF488711846FFF7E2FD019BDC
:1026D4001B684FF490711846FFF7DBFD019B1B68E4
:1026E4004FF492711846FFF7D4FD019B1B684FF419
:1026F400A2711846FFF7CDFD019B1B680E491846D1
:10270400FFF7FDFD019B1B681846FFF789FD034693
:102714001A469DF8033019461046FFF789FD019BC0
:102724001B681846FFF77CFD03461846FFF795FD26
:1027340000BF03B05DF804FB1003020000B583B0D2
:102744000190019B1B6808491846FFF7E2FD019BB5
:102754001B681846FFF764FD03461846FFF78BFD18
:1027640000BF03B05DF804FB1003020000B587B09E
:102774000190019B1B681846FFF712FE0590019B10
:102784001B681846FFF714FE0490019B1B6818464B
:10279400FFF716FE0390019B1B681846FFF718FE0F
:1027A4000290019B1B681846FFF7ECFD019B1B6818
:1027B4001846FFF724FE059BB3F1FF3F02D00598AE
:1027C400FFF7E5FE049BB3F1FF3F02D00498FFF747
:1027D400DEFE029BB3F1FF3F02D00298FFF7D7FE63
:1027E400039BB3F1FF3F02D00398FFF7D0FE00BF75
:1027F40007B05DF804FB000000B587B003900291B8
:102804000192039B1B791A461346DB0013449B0079
:10281400264A1344049300230593049B93F8203021
:10282400002B03D008230593059B3AE0039B1A6809
:10283400039B1B7919461E4B53F821301946104649
:1028440000F0FEF90346002B03D011230593059BEA
:1028540027E002990398FFF7C9FE049B019A5A6086
:10286400029B1A69049B1A60049B5B68002B05D0C9
:10287400029B1B7F19460398FFF71CFF039B1B68F1
:102884001846FFF75EFD049B00229A61049B002218
:10289400DA61049B00225A61049B012283F8202000
:1028A400059B184607B05DF804FB00BFD400002068
:1028B400E856000000B585B00190019B1B791A46CB
:1028C4001346DB0013449B00104A13440393019BFB
:1028D4001B681846FFF73EFD039B5B68002B02D084
:1028E4000198FFF72BFF0198FFF740FF019B1B683E
:1028F400184600F0D6F9039B002283F82020039B9E
:1029040000225A6000BF05B05DF804FBD40000202B
:1029140000B589B0039002910192039B1B791A467A
:102924001346DB0013449B00394A13440593029871
:10293400FFF768FC034683F00103DBB2002B03D0EE
:1029440010230793079B5EE0039800F063F80346A7
:10295400002B03D011230793079B54E0059B019A96
:102964005A61059B029A9A6000230793039B1B6894
:102974004FF490711846FFF78CFC039B1B684FF4CF
:10298400AC711846FFF785FC039B1868059B996892
:10299400059B5B691A46FFF76DFD039B1B680821C5
:1029A4001846FFF73AFD059B5B68002B2AD1039B71
:1029B4001B684FF490711846FFF780FC03468DF8AE
:1029C4001B30039B1B684FF4AC711846FFF776FC71
:1029D40003468DF81A309DF81B3083F00103DBB2F7
:1029E400002B06D09DF81A3083F00103DBB2002BD4
:1029F400DDD19DF81A30002B01D00F230793059BDE
:102A040000225A61079B184609B05DF804FB00BF19
:102A1400D400002082B00190019B1B791946084A1A
:102A24000B46DB000B449B00134414331B68002B40
:102A340014BF01230023DBB2184602B0704700BF65
:102A4400D400002000B589B00390029101920123C3
:102A54008DF81030029B0693019B0593039B5B68E2
:102A6400039A116804AA1046984700BF09B05DF89C
:102A740004FB00B587B00190009100238DF8083065
:102A8400009B0493019B9B680393019B00225A6162
:102A9400019B5B68019A116802AA1046984700BF1F
:102AA40007B05DF804FB00B589B0019000914FF4C4
:102AB40092710198FFF702FC0346002B22D04FF4D9
:102AC40092710198FFF7E5FB02238DF80830019815
:102AD400FFF729FC034605930198FFF7E2FC034640
:102AE4000493009BDB680393009B00229A61009B84
:102AF4000022DA61009B5B68009A116802AA104602
:102B040098473BE04FF488710198FFF7D7FB0346E1
:102B1400002B33D04FF488710198FFF7BAFB01986A
:102B2400FFF7BFFC0790009B9B69079A9A4225D147
:102B3400009BDB69002B17D0009BDB6806932021E8
:102B44000198FFF7CDFB009BDA69009B9A61009B1B
:102B54001A69009BDA60009B0022DA61069A0799E1
:102B64000098FFF76FFF09E0009B00229A61009B29
:102B7400DB681A4607990098FFF764FF4FF4A271C7
:102B84000198FFF79BFB0346002B18D04FF4A2716A
:102B94000198FFF77EFB009B9B69002B0FD0009BE5
:102BA40000229A61009B0022DA610198FFF779FC08
:102BB4000146009BDB681A460098FFF743FF4FF479
:102BC40090710198FFF77AFB0346002B10D04FF465
:102BD40090710198FFF75DFB009B5B69002B07D0A8
:102BE4000198FFF756FC034619460098FFF741FF8A
:102BF40000BF09B05DF804FB08B503490348FFF7BB
:102C040052FF00BF08BD00BFD400002000200040D8
:102C140008B5024B1B68984700BF08BDF8000020A8
:102C240082B00190019B044A934201D1034B00E01E
:102C34000023184602B0704700200040F80000202E
:102C440000B587B0019000910198FFF7E9FF039068
:102C5400039B002B1ED000238DF81730002001F0B9
:102C6400B9F9039B1B79002B03D001238DF817308E
:102C740005E0039B009A1A60039B01221A7100204D
:102C840001F0B1F99DF81730002B03D01123049300
:102C9400049B02E000230493049B184607B05DF8EC
:102CA40004FB00B585B001900198FFF7B9FF0390CC
:102CB400039B002B05D0039B00221A60039B002278
:102CC4001A7100BF05B05DF804FB000000B585B0C3
:102CD4000190019B002B0AD0074B43F0010303939F
:102CE400019B9B010293039B0298984700E000BF5D
:102CF40005B05DF804FB00BFF056000082B00190FF
:102D0400019B1B681F2B02D84FF0A04306E0019BD8
:102D14001B6803F01F02019B1A60024B184602B0A5
:102D2400704700BF0003005000B585B0019001ABAF
:102D34001846FFF7E3FF0390019B012202FA03F315
:102D44001946039800F035F800BF05B05DF804FBA0
:102D540000B585B0019001AB1846FFF7CFFF039093
:102D6400019B012202FA03F31946039800F02BF8A1
:102D740000BF05B05DF804FB00B585B0019001AB60
:102D84001846FFF7BBFF0390039800F00AF80246C9
:102D9400019B22FA03F303F00103184605B05DF822
:102DA40004FB82B00190019BD3F81035184602B0A1
:102DB400704782B001900091019B009AC3F80825E6
:102DC40000BF02B0704782B001900091019B009A4D
:102DD400C3F80C2500BF02B0704700B585B0019060
:102DE4004FF0A042019B1B6803F5E07340F20C61B5
:102DF40042F823104FF0A042019B5B6803F5E07397
:102E040040F20C6142F82310019B1B681846FFF73F
:102E14008BFF019B5B681846FFF786FF4FF0A042CB
:102E2400019B1B6803F5E07340F20D6142F8231027
:102E34004FF0A042019B5B6803F5E07340F20D6123
:102E440042F823100420FFF741FF002303931EE000
:102E5400019B5B681846FFF78FFF0346002B03D0E6
:102E6400039B002B17D124E0019B1B681846FFF736
:102E74006FFF0420FFF72AFF019B1B681846FFF72A
:102E840053FF0420FFF722FF039B01330393039BAB
:102E9400082BDDDD00E000BF019B5B681846FFF7EF
:102EA40057FF0420FFF712FF019B5B681846FFF7EA
:102EB4003BFF05B05DF804FB00B589B001900091BB
:102EC400009B0793019B1B788DF80C30019B1B79A9
:102ED4008DF81030019B5B798DF81130019B9B6854
:102EE400DBB28DF81230019BDB68DBB28DF8133056
:102EF400019B1B690593019B5B690693074A079B2A
:102F040052F823300649079A51F8221003AA1046B2
:102F1400984700BF09B05DF804FB00BF0001002022
:102F24000801002000B587B003900291019200933C
:102F3400039B1B7805931249059B019A41F82320B2
:102F44001049059B009A41F82320029B5B7B002BD0
:102F540002D00298FFF741FF00230493039B181D3E
:102F6400019B002B01D0084A00E00022059B029936
:102F7400FDF732FF0490049B184607B05DF804FB8C
:102F84000001002008010020BD2E000000B589B01A
:102F940001900091009B0793019B1B788DF80C30E6
:102FA400019B5B680493019B9B68DBB28DF8143032
:102FB400019BDB680693074A079B52F823300649B6
:102FC400079A51F8221003AA1046984700BF09B087
:102FD4005DF804FB100100201801002000B589B041
:102FE40001900091009B0793019B1B788DF80C3096
:102FF400019B5B680493019B9B68DBB28DF81430E2
:10300400019BDB680693074A079B52F82330064965
:10301400079A51F8221003AA1046984700BF09B036
:103024005DF804FB100100201801002030B58FB0BA
:10303400039002910192039B1B780C9326490C9BED
:10304400019A41F82320029B1A6924490C9B41F8F8
:103054002320029B5B7F1946214A0C9B13440A469A
:103064001A70029B04AC1D460FCD0FC495E80F00E7
:1030740084E80F000C9B089300230D93039B1B789B
:103084001A46174B9B5C002B0DD0039B181D019B0C
:10309400002B01D0134A00E0002204AB1946FFF7CD
:1030A400ABFB0D9014E0039B1B781A460C4B9B5C06
:1030B400002B0DD1039B03F10C00019B002B01D0CD
:1030C400094A00E0002204AB1946FEF79BFD0D906F
:1030D4000D9B18460FB030BD1001002018010020D0
:1030E40020010020912F0000E12F000000B583B0E3
:1030F4000190019B9B68002B0CD0019B5B69019A9A
:103104001069019A1168019A92689847019B0022FC
:103114009A6000E000BF03B05DF804FB0EB400B594
:1031240084B00190059B002B0AD00023039306ABC7
:10313400039303AB1A460599019800F0B5F900E032
:1031440000BF04B05DF804EB03B0704700B583B072
:1031540001900B468DF803309DF803300A2B03D100
:103164000D210198FFF7F2FF019B1A68019B9B68F0
:10317400581C0199886013449DF803201A70019B20
:103184009A68019B5B689A4202D30198FFF7AEFFED
:1031940000BF03B05DF804FB00B587B00390029153
:1031A4000192009300230593009B03F00103002B7D
:1031B40024D00BE0029B01330293059B013305935A
:1031C4009DF8133019460398FFF7C0FF029B1B7844
:1031D4008DF813309DF81330002BEBD106E0019BE2
:1031E400013B019320210398FFF7B0FF019A059B4F
:1031F4009A422ED9019B002BF1D12AE0029B002B8D
:103204000BD0029802F0B4F9059006E0019B013B53
:10321400019320210398FFF799FF019A059B9A4295
:103224000FD9019B002BF1D10BE0029B01330293D8
:10323400059B013305939DF8133019460398FFF756
:1032440085FF029B1B788DF813309DF81330002BFB
:10325400EBD100BF07B05DF804FB000000B589B0F6
:103264000390029101920093029B0793012306931A
:1032740007E0079A019BB2FBF3F30793069B013324
:103284000693079A019B9A42F3D2009A069B9A42AC
:1032940001D9009B06930B9B03F00103002B22D161
:1032A4000A9B002B1FD00B9B03F00203002B06D0BC
:1032B400009B002B03D130238DF8173002E020232C
:1032C4008DF8173008E00A9B013B0A939DF81730EC
:1032D40019460398FFF73AFF0A9B002B03D0069A7E
:1032E4000A9B9A42EFD301230793009B012B03D936
:1032F400009B013B009309E0029A079BB2FBF3F3A6
:103304000493049A019B9A4200D205E0079B019A18
:1033140002FB03F30793E8E7029A079BB2FBF3F37C
:103324000493049B079A02FB03F3029AD31A0293B1
:10333400154A049B13441B7819460398FFF706FFAC
:10334400079A019BB2FBF3F30793079B002BE3D18E
:103354000B9B03F00103002B11D00A9B002B0ED012
:1033640006E00A9B013B0A9320210398FFF7EEFE37
:103374000A9B002B03D0069A0A9B9A42F1D300BF02
:1033840009B05DF804FB00BFF856000000B589B031
:103394000590049103920293049B002BB8BF5B42F7
:1033A40006930123079307E0039B069A92FBF3F32A
:1033B4000693079B01330793039B069A9A42F3DA19
:1033C400029A079B9A4201D9029B07930A9B002BFE
:1033D4000AD0049B002B04DB0B9B03F00403002B9B
:1033E40002D00A9B013B0A930B9B03F00203002BC0
:1033F40002D0029B002B16D00B9B03F00103002B81
:1034040011D10A9B002B0ED006E00A9B013B0A93C4
:1034140020210598FFF79AFE0A9B002B03D0079AF8
:103424000A9B9A42F1D3049B002B07DA049B5B426C
:1034340004932D210598FFF789FE08E00B9B03F008
:103444000403002B03D02B210598FFF77FFE0B9B71
:1034540003F00203002B19D00B9B03F00103002B94
:1034640014D1029B002B11D10A9B002B0ED006E035
:103474000A9B013B0A9330210598FFF767FE0A9BDC
:10348400002B03D0079A0A9B9A42F1D304990B9B11
:1034940001930A9B0093029B039A0598FFF7DEFEB3
:1034A40000BF09B05DF804FB00B58FB0059004912E
:1034B4000392049B002B00F09181049B1B788DF8F0
:1034C4003730049B013304939DF83730002B00F010
:1034D4007C819DF83730252B40F06B8100230A93C3
:1034E40001230C93049B1B788DF837309DF83730FB
:1034F400302B0DD0302B1BDC2B2B11D02D2B17D1C7
:103504000A9B43F001030A93049B0133049312E0E2
:103514000A9B43F002030A93049B013304930AE0D9
:103524000A9B43F004030A93049B0133049302E0CF
:1035340000230C9300BF0C9B002BD3D100230993D1
:103544009DF837302A2B0CD1039B1B68191D039A55
:1035540011601B68099A13440993049B0133049373
:103564001AE0049B1B788DF837309DF837302F2BE9
:1035740012D99DF83730392B0ED8049B01330493AC
:10358400099A13469B0013445B001A469DF8373092
:103594001344303B0993D3E700230B93049B1B781C
:1035A4008DF837309DF837302E2B1DD1049B013315
:1035B4000493049B1B788DF837309DF837302F2BFC
:1035C40012D99DF83730392B0ED8049B013304935C
:1035D4000B9A13469B0013445B001A469DF8373040
:1035E4001344303B0B93E4E7049B1B788DF837308E
:1035F4009DF837306C2B03D09DF83730682B07D1FA
:10360400049B01330493049B1B788DF83730EFE758
:103614009DF83730252B00F0C280252BC0F2C480E2
:10362400782B00F3C180582BC0F2BE80583B202B6E
:1036340000F2BA8001A252F823F000BF2F37000035
:10364400AD370000AD370000AD370000AD370000E6
:10365400AD370000AD370000AD370000AD370000D6
:10366400AD370000AD370000C5360000E736000076
:10367400AD370000AD370000AD370000AD370000B6
:10368400E7360000AD370000AD370000AD3700006D
:10369400AD370000AD370000AD3700006F370000D4
:1036A400AD370000AD37000053370000AD370000E0
:1036B4000B370000AD370000AD3700002F37000096
:1036C400039B1B68191D039A11601B680C930C9BC8
:1036D4008DF81F309DF81F3019460598FFF736FD09
:1036E40063E0039B1B68191D039A11601B680C930C
:1036F4000A9B0193099B00930B9B0A220C99059842
:10370400FFF744FE51E0039B1B68191D039A1160E7
:103714001B680C930C990A9B0193099B00930B9BC8
:103724000A220598FFF79AFD3FE0039B1B68191DC9
:10373400039A11601B680C930C990A9B0193099BD3
:1037440000930B9B10220598FFF788FD2DE0039B47
:103754001B68191D039A11601B6808930A9B099A38
:1037640008990598FFF718FD1FE0039B1B68191DB6
:10377400039A11601B680C9330210598FFF7E6FC4F
:1037840078210598FFF7E2FC0C99002301930823A4
:103794000093082310220598FFF760FD05E025211A
:1037A4000598FFF7D3FC00E000BF049B01330493AA
:1037B40005E09DF8373019460598FFF7C7FC049BD0
:1037C4001B78002B7FF479AE00E000BF059B1B7BC8
:1037D400002B04D00598FFF789FC00E000BF0FB070
:1037E4005DF804FB00B585B00190019800F00EF877
:1037F4000390039B002B01D0039B00E0024B18466F
:1038040005B05DF804FB00BF0857000086B00190C6
:10381400164B0593164B04931FE0049A059BD31A89
:10382400DB10DA0F13445B10DB00059A1344039397
:10383400039B1B680293029A019B9A4202D9039B41
:1038440004930AE0029A019B9A4203D2039B083331
:10385400059302E0039B5B6804E0059A049B9A428B
:10386400DBD30023184606B0704700BFDC5A0000C3
:10387400F45B000082B00190019B9B6800229A6077
:10388400019B9B6800221A61019B9B6800225A617C
:10389400019B9B680022DA60019B9B6800225A60AE
:1038A400019B9B6800221A6000BF02B0704700B5FC
:1038B40083B00190019800F088F90346184603B0DC
:1038C4005DF804FB00B58BB001900091019B1B8A4D
:1038D400043B0793009A079B1344DA1C079BB2FB33
:1038E400F3F38DF81B30019800F09AF90590059BCD
:1038F400002B01D1002338E0059B00221A71059B9F
:1039040001225A71079B9AB2059BDA80059B0993A1
:103914009DF81B30013B0493099B019A1A60002314
:1039240008931DE0019800F07BF90390039B002BA2
:103934000ED0059B5B790133DAB2059B5A71099B62
:10394400039A1A60039B019A1A60039B099304E08B
:10395400059800F00EF8002307E0089B0133089354
:10396400089A049B9A42DDD3059B18460BB05DF878
:1039740004FB00B58BB00190019B0793079B5B7917
:103984008DF81B30019B08939DF81B30013B059378
:103994000023099305E0089B1B680893099B0133E6
:1039A4000993099A059B9A42F5D3089B1B680493D3
:1039B400019B0893002309930BE0089B1B68039366
:1039C4000899049800F063F9039B0893099B013359
:1039D40009939DF81B30099A9A42EED300BF00BFA9
:1039E4000BB05DF804FB00B585B00190019B039317
:1039F400039B04330121184600F0AAF900BF05B067
:103A04005DF804FB00B587B00190019B0593059B0D
:103A140004330121184600F0B3F90346039303ABC2
:103A24000493049B1B78002B02D10198FFF7A1FF9C
:103A340000BF07B05DF804FB00B591B0039002919C
:103A440001920093039B0993039B0F93099BDB88CB
:103A54001A46099B5B7903FB02F3043B0893099B19
:103A6400DB880793009B1A1D079BB2FBF3F30E93AD
:103A7400009B0433079AB3FBF2F2079901FB02F2AD
:103A84009B1A0D93019B1A68009B1344089A9A424F
:103A940003D2089A009BD31A01E0019B1B680C9384
:103AA400019B0C9A1A6005E00F9B1B680F930E9BF9
:103AB400013B0E930E9B002BF6D100230B93079A28
:103AC4000D9BD31A0A930A9A0C9B934228BF134660
:103AD4000A932AE0029A0B9B134406930F9A0D9BB8
:103AE4001344043305939DF84830002B05D00A9AFB
:103AF4000599069801F013FD04E00A9A06990598C1
:103B040001F00DFD00230D930F9B1B680F930C9A7E
:103B14000A9BD31A0C930B9A0A9B13440B93079A90
:103B24000C9B934228BF13460A930C9B002BD1D1C4
:103B340000BF00BF11B05DF804FB00B589B005906B
:103B4400049103920293039B079307AA0023009313
:103B5400029B04990598FFF76FFF00BF09B05DF859
:103B640004FB00B589B00590049103920293039B72
:103B7400079307AA01230093029B04990598FFF772
:103B84005BFF00BF09B05DF804FB82B001900B46F7
:103B94008DF80330019BDA689DF803300199098A96
:103BA40001FB03F31344184602B0704782B001903E
:103BB4000091009B019AD2689B1A019A128AB3FB66
:103BC400F2F3DBB2184602B0704784B00190019B57
:103BD400002B01D10E2320E0019B9A68019B5B68B6
:103BE400D31A8DF80F30019B1B68019A52681A6032
:103BF40007E0019B1A681368591C11609DF80F2097
:103C04001A709DF80F305A1E8DF80F20002BF0D13A
:103C1400019B1B6800221A710023184604B07047E8
:103C240000B585B0019000230393002000F0D2F981
:103C3400019B1B681A68019B5B689A421FD9019B10
:103C44001B681A68013A1A601B681B7819460198A8
:103C5400FFF79BFF0390019B9A68019B1B681B68FD
:103C6400D31A8DF80B30019B1B681B799DF80B2030
:103C74009A4204D9019B1B689DF80B201A710020FD
:103C840000F0B1F9039B184605B05DF804FB10B5CC
:103C940084B001900091009B0393002000F09AF9F6
:103CA400019B1B681C68621C1A6003990198FFF74A
:103CB4007DFF03462370002000F095F900BF04B097
:103CC40010BD10B487B001900091019B009A53E895
:103CD400004F104643E8000191F0000FF7D105941E
:103CE40004900391059B184607B05DF8044B704798
:103CF40010B487B001900091019B009A53E8004FE3
:103D040044EA020043E8000191F0000FF6D1059463
:103D140004900391049B184607B05DF8044B704768
:103D240010B487B001900091019B009A53E8004FB2
:103D340004EA020043E8000191F0000FF6D1059473
:103D440004900391059B184607B05DF8044B704737
:103D540010B487B001900091019B009A53E8004F82
:103D640004EB020043E8000191F0000FF6D1059442
:103D740004900391049B184607B05DF8044B704708
:103D840010B487B001900091019B009A53E8004F52
:103D9400A4EB020043E8000191F0000FF6D1059472
:103DA40004900391049B184607B05DF8044B7047D8
:103DB40000B583B0019001210198FFF799FF0346F4
:103DC400184603B05DF804FB00B583B001900021F0
:103DD4000198FFF7A5FF0346184603B05DF804FBFE
:103DE40086B003900291019201238DF817309DF85B
:103DF4001730214A039B13601F4A029B53601E4ADB
:103E0400019B9360039B44F20102934213D0039BF2
:103E140044F20202934221D1019B174AD360164B0C
:103E2400DB681B881A46144B9A61134BDB685B688A
:103E3400114AD36112E0019B0F4A13610E4B1B69B7
:103E44009B680D4A53610C4B1B691B680A4A9361BA
:103E5400094B1B695B68084AD36100BF72B600BF97
:103E640000BF9DF81730DBB2002BFAD162B600BF59
:103E740000BF06B0704700BF2401002000B583B026
:103E840002900091019244F2010071466A4600F0EA
:103E940003F803B000BD00BF30B58BB007900691A6
:103EA400059272B600BF01F013F800BF00F0D6FD12
:103EB4000346002BFAD1079B44F20102934216D029
:103EC400079B44F2020293423ED1059B09932C4A7C
:103ED4002C4BD31ADB081B0443F00100099B5B68DD
:103EE4001A46099B1B88284900F07BFD39E0059B95
:103EF4000893234A234BD31ADB081B0443F0010421
:103F0400089B9D68089B9B681846FFF76BFC03465B
:103F14001846089B5B681946089B1B68069A029220
:103F24000193009103462A461849204600F06DFD8E
:103F3400134A144BD31ADB081B0443F0010314493E
:103F4400184600F02FFD0CE00D4A0E4BD31ADB0887
:103F54001B0443F00103069A0E49184600F030FD95
:103F640000BF0D4B1B6803F00103002B00D000BE03
:103F7400059A06990798FFF733FF00BF0BB030BDD1
:103F840008560000E8550000F45B0000105C0000D7
:103F9400385C00004C5C0000F0ED00E072B600BF3D
:103FA400034B1B680133024A136000BF704700BF14
:103FB40044010020064B1B68013B054A1360044B77
:103FC4001B68002B01D162B600BF00BF704700BF61
:103FD4004401002000B583B00190FFF7DFFF00BF6C
:103FE40003B05DF804FB00B583B003468DF80730D9
:103FF400FFF7E0FF00BF03B05DF804FB00B5A1B01C
:1040040005900491039202930498FFF7ECFC039B40
:104014001593029B16930023179300238DF86030A9
:1040240000231993229B1A9300231F930FA91F9B0C
:1040340008220498FFF795FD08231F93119B129300
:10404400BDF84030ADF84C30BDF84230ADF84E30DC
:1040540000238DF851309DF83C3003F00303DBB2AC
:10406400012B26D10F9BC3F395231C939DF83C3061
:10407400C3F3C203DBB28DF85030BDF83C30C3F358
:104084008313DBB21B931B9B9A0009A91F9B049803
:10409400FFF767FD1B9B9B001F9A13441F9312AAF3
:1040A40009A915AB009313461B9A1C9800F0BEFF98
:1040B4002FE09DF83C3003F00303DBB2022B28D140
:1040C400BDF83E30C3F389139BB21E939DF83C3078
:1040D400C3F3C203DBB28DF850301E9B082B28BFFC
:1040E40008231D9307A91F9B1D9A0498FFF739FD08
:1040F4001F9A1D9B13441F931E9A1D9BD31A1E9334
:1041040015AB12AA07A81D9901F032F81E9B002BCB
:10411400E3D10498FFF776FC00BF21B05DF804FBFF
:1041240000B583B00190019B1B781A460C4B9B5C35
:10413400002B05D0019B04331846FEF7BBFB0BE0B4
:10414400019B1B781A46064B9B5C002B04D1019BF8
:104154000C331846FDF7B6FD00BF03B05DF804FB51
:104164002001002000B587B00390029113468DF81A
:10417400073000230593039B1B781A46114B9B5C65
:10418400002B09D0039B04339DF80720029918469D
:10419400FEF7BEFB05900FE0039B1B781A46094B04
:1041A4009B5C002B08D1039B0C339DF807200299DC
:1041B4001846FDF7FDFD0590059B184607B05DF810
:1041C40004FB00BF2001002082B001900091034B4A
:1041D40001221A7000BF02B0704700BF880100209E
:1041E40030B58DB003468DF807301A4B02AC1D462E
:1041F4000FCD0FC495E80F0084E80F000623029347
:104204004FF0FF3303934FF0FF3304934FF0FF332A
:1042140005934FF0EB7308939DF80730002B01D002
:104224000D4A00E0002202AB19460C48FEF7FEFEE0
:104234000B900B9B0A930A9B002B04D0084A432142
:104244000A98FFF71BFE074A9DF80730137000BF5A
:104254000DB030BDB45C0000CD410000040000206E
:10426400645C00008901002000B583B001238DF84F
:1042740007309DF807301846FFF7B2FF00BF03B0C0
:104284005DF804FB00B589B0039002910192019B93
:104294008DF81F30124B00221A709DF81F301A46F9
:1042A40002991048FFF75EFF0690069B0593059B55
:1042B400002B04D00C4A53210598FFF7DFFD00BF03
:1042C4000A4B1B78002B07D0054B1B78DBB283F01D
:1042D4000103DBB2002BF3D100BF09B05DF804FB8E
:1042E4008801002004000020645C00008901002093
:1042F40000B585B003900291054B00934023054A15
:1043040002990398FFF77AFE00BF05B05DF804FB3D
:10431400894200004801002082B0019000BF02B031
:104324007047000000B583B001900548FFF7F8FE20
:104334000020FFF755FF00BF03B05DF804FB00BF8A
:104344000400002082B00190019BDB6801225A71B5
:1043540000BF02B07047000000B583B04FF0FF33D8
:104364000193FFF781FF0421054800F079FD0190D6
:104374000348FFF7E7FF00BF03B05DF804FB00BF8D
:104384001056000000B583B001900091019B1B689A
:104394001B6800990198984700BF03B05DF804FBBF
:1043A40000B583B00190019B1B685B680198984736
:1043B40000BF03B05DF804FB00B583B00190019B1E
:1043C4001B689B680198984700BF03B05DF804FB25
:1043D40082B001900B468DF80330019BDB689DF899
:1043E40003201A7100BF02B0704782B00190019B94
:1043F400DB681B79184602B0704782B00190019BBC
:10440400DB6801225A7100BF02B0704782B001908C
:10441400019BDB685B79184602B0704700B585B034
:1044240001900091154BFF229A60144B00221A60F0
:10443400124B00225A60114B0022C3F818240F4B70
:104444000022C3F814240D4B002283F820240C48C6
:10445400FFF72DFA0390039B002B01D0039B08E088
:104464000848FFF707FA084A084BD31ADB080293F7
:104474000023184605B05DF804FB00BFF4020020D9
:10448400D4550000F45C000010560000E85500000C
:10449400024A034BD31ADB08184670471056000033
:1044A400E855000000B587B001900B468DF8033045
:1044B4009DF80330002B1FD0FFF7EAFF0490002380
:1044C400059313E0059B9B000E4A13440393039B3F
:1044D4001B881A46019B1B689A4204D1019B059ACA
:1044E4001A60002309E0059B01330593059A049B98
:1044F4009A42E7D3052300E00023184607B05DF88D
:1045040004FB00BF0000002000B585B001900B46FD
:104514008DF803309DF8032001AB11461846FFF7D0
:10452400C1FF0346002B07D1019BDB00054A13445E
:104534000393039B1B6800E00023184605B05DF855
:1045440004FB00BFE855000084B001900B468DF8D1
:104554000330019BDB00174A134402939DF8033098
:10456400013B032B1CD801A252F823F08145000023
:1045740089450000914500009B45000002238DF809
:104584000F3011E004238DF80F300DE0029B1B79EE
:104594008DF80F3008E0029B5B798DF80F3003E053
:1045A40000238DF80F3000BF9DF80F30184604B07B
:1045B400704700BFE855000084B0019000910023CB
:1045C4008DF80F30019B1B7803F00403DBB2002B42
:1045D40024D0019B1B78C3F30103DBB2012B02D06F
:1045E400022B0CD017E0009B1B68019A1288C2F3BF
:1045F4008312D2B213449A1C009B1A600BE0009BF6
:104604001B68019A5288C2F3891292B213449A1C0D
:10461400009B1A6000BF01238DF80F309DF80F3006
:10462400184604B07047000000B58BB00023ADF805
:1046340026303B48FFF7BCFB3A48FFF7B9FB3A4B3F
:104644005B680493384B9B680693049A069B13405B
:1046540002339B00344A13440433089304AB1946D1
:104664000898FFF7A9FF0346002B09D0049A069B7C
:10467400134002339B002C4A134404330893EDE7A0
:1046840000BF0023079311E0049B5A1C0492069A6E
:104694001340079A920001A90A44234902339B005C
:1046A4000B445B681360079B01330793079B012B43
:1046B400EAD99DF80430C3F30103DBB2012B10D017
:1046C400022B1CD1BDF80A30ADF82630BDF80630F7
:1046D400C3F389139BB203339A08049B13440493D2
:1046E4000EE0BDF80A30ADF82630BDF80430C3F34F
:1046F4008313DBB21A46049B1344049300E000BF07
:104704000848FFF761FB0590059B002B02D0049B32
:10471400054A5360BDF8263018460BB05DF804FB1B
:104724000C07002008070020F402002000B585B023
:1047340000210748FFF7C5FA0390039B0293029BED
:1047440083F310030193019B184605B05DF804FB45
:104754001007002000B589B00390029101920093E4
:10476400039B1B0C0693FFF7E1FF0790079B1904BB
:10477400009B5A1C0A9B1340069A0A431B490233A6
:104784009B000B445A60009A0A9B134002339B001F
:10479400164A134404330593039B03F00703D9B269
:1047A400059A137861F3C5031370019B03F00F039B
:1047B400D9B2059A138861F389131380029BC3F35A
:1047C4001501059A136861F39F231360059A137802
:1047D400012161F301031370059A13786FF38203C7
:1047E400137000BF09B05DF804FB00BFF4020020A1
:1047F40000B58BB00390029113468DF80730039BEC
:104804000233089301238DF81F300020FFF7E2FBE9
:104814003E4B1A68029B1A603C4B9A683B4B5968A2
:104824003A4B1B68CB1A13440133099314E001215A
:104834003748FFF78DFAFFF7F7FE059005993448DE
:10484400FFF786FA314B9A68304B59682F4B1B6837
:10485400CB1A134401330993089A099B9A42E6D868
:104864009DF81F30002B48D0002304939DF8073097
:10487400002B17D09DF81030012262F301038DF84C
:1048840010309DF8103043F004038DF81030039B72
:1048940003F00F03DAB2BDF8103062F38913ADF8F8
:1048A400103016E09DF81030022262F301038DF8F7
:1048B40010309DF8103043F004038DF81030039B42
:1048C400C3F309039AB2BDF8123062F38F13ADF843
:1048D40012300E4B1A680D4B9B68134002339B0039
:1048E4000A4A134404330693049A069B1A60074B3E
:1048F4001A68089B1344054A13600020FFF773FBF2
:104904009DF81F3018460BB05DF804FBF40200203C
:104914001007002000B58BB0059004910392029318
:104924001F4B9B68079306AB012219460298FFF7B9
:104934005FFF0346002B24D0069B02330993002318
:10494400089311E0089B9B00039A1A44099B591C85
:10495400099107990B401268114902339B000B44DB
:104964005A60089B01330893089A029B9A42E9D340
:10497400069A079B00931346029A04990598FFF739
:10498400E9FE074B93F82034002B05D000BF00F05C
:1049940065F80346002BFAD100BF0BB05DF804FBA9
:1049A400F402002000B583B001900091002300229E
:1049B40000990198FFF7AEFF00BF03B05DF804FB58
:1049C40000B587B0039002910192019B059305AA5B
:1049D400012302990398FFF79DFF00BF07B05DF81C
:1049E40004FB00B587B00390029101920093019BF0
:1049F4000493009B059304AA022302990398FFF7EA
:104A040089FF00BF07B05DF804FB00B58BB00390CD
:104A1400029101920093019B0593009B06930C9BCA
:104A240007930D9B08930E9B099305AA05230299EE
:104A34000398FFF76FFF00BF0BB05DF804FB0000A5
:104A4400054B5A68044B1B689A420CBF0123002390
:104A5400DBB21846704700BFF402002000B599B0DD
:104A6400FFF7EEFF0346002B01D00023B7E19B4B79
:104A74000022C3F81824BFF34F8F00BF974B5B6825
:104A84000493964B9B681093049A109B1340023333
:104A94009B00924A13440433119300231793002379
:104AA400169300230F9304AB19461198FFF784FD66
:104AB4000346002B19D0894BD3F81834002B14D19A
:104AC400864B1A68049B9A4205D8844B1B68834A18
:104AD4005360002383E1049A109B134002339B002C
:104AE4007E4A134404331193DDE70023159311E048
:104AF400049B5A1C0492109A1340159A920001A91F
:104B04000A44764902339B000B445B681360159B8F
:104B140001331593159B012BEAD99DF8043003F05A
:104B24000303DBB2022B40F09C80BDF80630C3F3D4
:104B340089139BB20D93BDF80630C3F389139BB25E
:104B4400502B28BF50239BB20C930C9BC3F3090337
:104B54009AB2BDF8063062F38F13ADF806300C9BA1
:104B640008330B939DF80430C3F3C203DBB20F93F5
:104B74000B995B48FEF7A6FE1790179B002B00F0DD
:104B8400D1801798FEF72FFF01A9169B08221798CA
:104B9400FEF7D3FF169B08331693049BDA43109B4E
:104BA400134001339B000A930C9A0A9B9A4242D900
:104BB4000A9B002B08D0049A109B134002339B00DD
:104BC400464A1344043300E0464B08930A9B002BE7
:104BD40002D00A9BDBB201E00C9BDBB28DF81F30E4
:104BE4000A9B002B01D03F4B00E0002306930A9B55
:104BF400002B06D00C9BDAB20A9BDBB2D31ADBB2D1
:104C040000E000238DF817309DF81F20169B0899AB
:104C14001798FEF792FF9DF81F30169A13441693C7
:104C2400069B002B16D09DF81720169B0699179803
:104C3400FEF783FF0EE0049A109B134002339B009F
:104C4400264A134404330993169B0C9A099917981E
:104C5400FEF773FF0D9B03339A08049B13440493DC
:104C640060E09DF8043003F00303DBB2012B59D15B
:104C7400BDF80430C3F38313DBB2062B28BF06232D
:104C8400DAB2BDF8043062F38913ADF80430BDF82C
:104C94000430C3F38313DBB202330E939DF8043064
:104CA400C3F3C203DBB20F930E9B9B0019460C485F
:104CB400FEF708FE1790179B002B33D01798FEF7CA
:104CC40092FE01A9169B08221798FEF736FF169B41
:104CD40008331693002315931BE000BFF402002051
:104CE400D455000000030020049B5A1C0492109A1F
:104CF400134002339B003C4A1344191D169B0422A3
:104D04001798FEF71AFF169B04331693159B01336D
:104D14001593BDF80430C3F38313DBB21A46159B15
:104D24009342E1D3179B002B39D02F4BD3F8103487
:104D340014932D4BD3F81834002B1BD01798FEF77F
:104D440061FE46E000238DF84F301498FFF75EFBB8
:104D54000346002B02D001238DF84F309DF84F30CD
:104D6400002B03D017991498FFF70CFB149BDB68F6
:104D74001B681493149B002BE4D11798FEF742FE92
:104D84000020FFF727F9184BD3F81834002B02D171
:104D9400049B154A53600020FFF725F919E0124BD4
:104DA400D3F81034129306E01298FFF705FB129B18
:104DB400DB681B681293129B002BF5D10B4A0C4B3A
:104DC400D31ADB081B0443F002030A491846FFF711
:104DD400E9FDFFF735FE034683F00103DBB2184615
:104DE40019B05DF804FB00BFF4020020085600006F
:104DF400E8550000045D000000B585B0002303936E
:104E040023E0164BD3F81034029301238DF80730B6
:104E14000FE00298FFF7E9FA03461A46039B934210
:104E240003D100238DF8073006E0029BDB681B6882
:104E34000293029B002BECD19DF80730002B01D08C
:104E4400039B07E0039B01330393039B092BD8DDEA
:104E54004FF0FF33184605B05DF804FBF402002060
:104E640000B585B001900B468DF80330FFF7C4FF01
:104E74000390039BB3F1FF3F01D1039B22E0039B0B
:104E8400DBB219460198FFF7A3FA104BD3F810349C
:104E9400002B08D10D4A019BC2F81034019BDB683A
:104EA40000221A600DE0094BD3F81034DA68019B34
:104EB400DB6812681A60054BD3F81034DB68019A7A
:104EC4001A60039B184605B05DF804FBF402002049
:104ED40000B583B00D4BD3F8103401930B4B012272
:104EE40083F8202409E00198FFF787FA0198FFF777
:104EF40057FA019BDB681B680193019B002BF2D1DD
:104F040000BF00BF03B05DF804FB00BFF402002043
:104F140082B00190009100BF02B0704710B584B018
:104F240003900291039BDB88002B0AD0039BDB8850
:104F34001A461F4B009313461E4A1F490298FEF758
:104F4400EDF8039B1B7A052B2ED0039B5B7A002B79
:104F540012D0039B9B881A46039B1B7A1946104662
:104F6400FFF7F2FA03461A46144B53F822301A4656
:104F740013490298FEF7D2F8039B1B68194602985E
:104F8400FFF7C6FF039B1B7A1A460E4B53F82240C9
:104F9400039B9B8800211846FFF7B6FA0346224676
:104FA40009490298FEF7BAF800BF04B010BD00BF6B
:104FB400385D0000485D0000805D00003400002082
:104FC400985D0000200000209C5D000000B585B0C5
:104FD4000390029113468DF80730039B1B7A052B2F
:104FE4000FD0039B5B7A002B06D00D4B1B681A462F
:104FF4000C490298FEF792F80B490298FEF78EF8D6
:1050040007E09DF80730002B03D007490298FEF70C
:1050140085F80298FEF76AF800BF05B05DF804FB56
:1050240034000020985D0000A85D000030B58BB00E
:1050340007900691059204930E9B1B7B8DF82730F5
:105044000E9B00221A730E990498FFF767FF059BC5
:10505400062B7FD801A252F823F000BF7D50000038
:105064008750000097500000AB500000C95000006A
:10507400F15000002151000007990E98FEF74EF8F8
:1050840069E0069B1B681A4607990E98FEF746F8D6
:1050940061E0069B1A68069B04331B6807990E9807
:1050A400FEF73CF857E0069B1A68069B0433196820
:1050B400069B08331B6800930B4607990E98FEF76E
:1050C4002DF848E0069B1968069B04331868069B74
:1050D40008331B68069A0C32126801920093034647
:1050E4000A4607990E98FEF719F834E0069B1868EB
:1050F400069B04331C68069B08331B68069A0C3213
:1051040012680699103109680291019200932346AE
:10511400024607990E98FEF701F81CE0069B1C68EE
:10512400069B04331D68069B08331B68069A0C32E1
:1051340012680699103109680698143000680390C3
:105144000291019200932B46224607990E98FDF78F
:10515400E5FF00E000BF00220E990498FFF736FF38
:105164000E9B9DF827201A7300BF0BB030BD00BF03
:1051740000B587B00390029101920093029B082B23
:1051840060D8009B1B7B8DF81330009B00221A73A0
:1051940000990198FFF7C2FE0023059314E0059AD5
:1051A400029B9A4209D2039A059B13441B781A4620
:1051B40026490098FDF7B2FF03E025490098FDF762
:1051C400ADFF059B01330593059B072BE7D92149C7
:1051D4000098FDF7A3FF0023059326E0059A029BA0
:1051E4009A421BD2039A059B13441B788DF8123004
:1051F4009DF812307E2B0AD89DF81230184600F024
:1052040089F90346002B02D09DF8123000E02E23CA
:105214001A4611490098FDF781FF03E00F490098F1
:10522400FDF77CFF059B01330593059B072BD5D91F
:10523400012200990198FFF7C9FE009B9DF81320F5
:105244001A7300E000BF07B05DF804FBAC5D00001A
:10525400B45D0000B85D0000BC5D0000C05D0000EE
:1052640000B589B0059003921A460B468DF81330A9
:1052740013468DF8123000230793059B181D9DF8E3
:1052840012209DF813109DF8283000931346039ABA
:10529400FCF734F80790079B184609B05DF804FB47
:1052A40000B587B0039001921A460B468DF80B3077
:1052B40013468DF80A3000230593039B181D9DF8AF
:1052C4000A309DF80B10019AFCF740F80590059BF5
:1052D400184607B05DF804FB82B00190034A019BB5
:1052E400136000BF184602B0704700BF18070020C3
:1052F40000B589B00346ADF80E30BDF80E301B0A78
:105304009BB2DBB28DF81430BDF80E30DBB28DF8F1
:1053140015300C4B18680C4B197805AA0023009320
:105324000223FFF79DFF0790079B0693069B002B24
:1053340004D0064A1A210698FEF7A0FD00BF09B062
:105344005DF804FB1807002058000020C45D00002D
:1053540000B583B00346ADF80630BDF806301846F4
:10536400FFF7C6FF00BF03B05DF804FB08B543F2C6
:105374001750FFF7BDFF00BF08BD0000054B1B78A9
:105384001B021AB2034B5B781BB213431BB29BB2D2
:10539400184670471C070020054BDB781B021AB225
:1053A400034B1B791BB213431BB29BB218467047C5
:1053B4001C07002008B5FFF7E1FF034607EE903A0B
:1053C400B8EE677ADFED076AC7EE267A9FED067AB4
:1053D40067EE877A9FED057A77EEC77AB0EE670AB3
:1053E40008BD00BF00FF7F4700002F430000344288
:1053F40008B5FFF7D1FF034607EE903AB8EE677A97
:10540400DFED056AC7EE267A9FED047A67EE877AA8
:10541400B0EE670A08BD00BF00FF7F470000C84226
:1054240000B583B00B4B18680B4B197806230B4A55
:10543400FFF736FF0190019B0093009B002B04D0E3
:10544400074A68210098FEF719FD00BF184603B00B
:105454005DF804FB18070020580000201C070020FA
:10546400C45D00007F2805D8034B185C034B5B5CCC
:105474001840704700207047185E0000985E0000D6
:10548400A0F16103192B98BF20387047A0F14103A4
:10549400192B98BF203070477F2805D8034B185C20
:1054A400034B5B5C1840704700207047185E000097
:1054B400985E0000A0F16103192B98BF2038704753
:1054C400A0F14103192B98BF203070477F299ABF60
:1054D400017001206FF02E0070475AB10A787F2ABC
:1054E4000AD800B10260002119605960501A18BF2F
:1054F40001207047002070476FF02E0070470000B5
:1055040008B5034B5B689B681B68984708BD00BFE0
:105514005C00002008B50921FFF7F2FF08BD8446AE
:1055240040EA010313F0030F18D18446202A0BD359
:105534002DE9F007B1E8F807A0E8F807A2F1200286
:10554400202AF7D2BDE8F007042A07D351F8043B18
:1055540040F8043BA2F10402042AF7D2002A05D041
:1055640011F8013B00F8013B013AF9D1604670475C
:1055740000F1010110F0030F11D010F8012B002AE3
:1055840023D010F0030F0AD010F8012B002A1CD0EE
:1055940010F0030F03D010F8012B002A15D02DE9C9
:1055A40070004FF001324FF0803350F8044BA4EBFD
:1055B400020525EA04051D4000D1F6E7A0F1040028
:1055C40070BC10F8012B002AFBD1A0EB010070473E
:1055D400540200208C01002094010020940100203A
:0455E40018000000AB
:1055E800EC56000000000000C85600000000000053
:1055F800D456000000000000E05600000000000043
:08560800005D00000000030337
:10561000D45C000000000000E05C000018000020E6
:105620000000000000300040000000000100000009
:1056300054656D70657261747572653A20202564D9
:105640002064656720432E0048756D69646974792C
:105650003A2020256420252E000000004A3A5C4DA7
:10566000616E6F6A5C696E6469616D746563685CC4
:105670006E524635323834305F73687463335F6D11
:105680006573685C6E524635325F73687463335C71
:105690006D61696E2E6300000D0A545749207365D1
:1056A0006E736F72206578616D706C6520737461C4
:1056B000727465642E00000000000000000000000D
:1056C0000338FDD8704700005457494D00000000D2
:1056D000991500005541525400000000452100007A
:1056E0005541525445000000FD2B0000505253001C
:1056F0000338FDD870470000303132333435363747
:105700003839414243444546556E6B6E6F776E2083
:105710006572726F7220636F646500004E52465F5F
:1057200053554343455353004E52465F4552524FE3
:10573000525F5356435F48414E444C45525F4D497A
:105740005353494E470000004E52465F4552524F58
:10575000525F534F46544445564943455F4E4F545C
:105760005F454E41424C4544000000004E52465FAA
:105770004552524F525F494E5445524E414C0000E3
:105780004E52465F4552524F525F4E4F5F4D454D10
:10579000000000004E52465F4552524F525F4E4F3E
:1057A000545F464F554E44004E52465F4552524F4D
:1057B000525F4E4F545F535550504F525445440022
:1057C0004E52465F4552524F525F494E56414C49E8
:1057D000445F504152414D004E52465F4552524F38
:1057E000525F494E56414C49445F53544154450021
:1057F0004E52465F4552524F525F494E56414C49B8
:10580000445F4C454E475448000000004E52465FEE
:105810004552524F525F494E56414C49445F464CA7
:10582000414753004E52465F4552524F525F494ED8
:1058300056414C49445F4441544100004E52465F3A
:105840004552524F525F444154415F53495A4500BB
:105850004E52465F4552524F525F54494D454F5547
:10586000540000004E52465F4552524F525F4E5513
:105870004C4C00004E52465F4552524F525F464FCD
:105880005242494444454E004E52465F4552524FA3
:10589000525F494E56414C49445F414444520000D6
:1058A0004E52465F4552524F525F42555359000087
:1058B0004E52465F4552524F525F4D4F44554C45F4
:1058C0005F4E4F545F494E495449414C495A4544F3
:1058D000000000004E52465F4552524F525F4D55F8
:1058E0005445585F494E49545F4641494C45440030
:1058F0004E52465F4552524F525F4D555445585F88
:105900004C4F434B5F4641494C4544004E52465F25
:105910004552524F525F4D555445585F554E4C4F6E
:10592000434B5F4641494C45440000004E52465FA0
:105930004552524F525F4D555445585F434F4E4468
:105940005F494E49545F4641494C454400000000C0
:105950004E52465F4552524F525F4D4F44554C4553
:105960005F414C52454144595F494E495449414C6D
:10597000495A4544000000004E52465F4552524F7E
:10598000525F53544F524147455F46554C4C0000BF
:105990004E52465F4552524F525F4150495F4E4F03
:1059A000545F494D504C454D454E54454400000010
:1059B0004E52465F4552524F525F464541545552F2
:1059C000455F4E4F545F454E41424C4544000000F8
:1059D0004E52465F4552524F525F494F5F50454EBF
:1059E00044494E47000000004E52465F4552524F18
:1059F000525F4452565F5457495F4552525F4F566B
:105A0000455252554E0000004E52465F4552524F8D
:105A1000525F4452565F5457495F4552525F414E60
:105A200041434B004E52465F4552524F525F4452E3
:105A3000565F5457495F4552525F444E41434B00B5
:105A40004E52465F4552524F525F424C455F49505D
:105A500053505F52585F504B545F5452554E434120
:105A6000544544004E52465F4552524F525F424C9D
:105A7000455F495053505F4348414E4E454C5F414E
:105A80004C52454144595F45584953545300000016
:105A90004E52465F4552524F525F424C455F49500D
:105AA00053505F4C494E4B5F444953434F4E4E4514
:105AB00043544544000000004E52465F4552524F49
:105AC000525F424C455F495053505F504545525FCD
:105AD00052454A4543544544000000000000000080
